:100000000C9444010C9475010C9475010C947501C9
:100010000C9475010C9475010C9475010C94750188
:100020000C9475010C9475010C9475010C94750178
:100030000C9475010C9475010C9475010C94750168
:100040000C9475010C9475010C9475010C94750158
:100050000C9475010C9475010C9475010C94840733
:100060000C9475010C944E070C9424070C947501A4
:100070000C9475010C9475010C9475010C94750128
:100080000C9475010C9475010C9475010C94750118
:100090000C9475010C9475010C9475010C94750108
:1000A0000C9475010C9475010C9475010C947501F8
:1000B0000C9475010C9475010C9475010C947501E8
:1000C0000C9475010C9475010C9475010C947501D8
:1000D0000C9475010C9475010C9475010C947501C8
:1000E0000C9475010C9477030C945A020C949C03A5
:1000F0000C946A030C949A040C9437020C946802D2
:100100000C9446020C94A0020C94C90C0C940A02A4
:100110000C9466030C949B040C947B030C945C037A
:100120000C9471030C946E030C9493030C943F0491
:100130000C9485030C9481030C9462030C949D032E
:100140000C94E3050C94A1030C94CE070C94FF03CC
:100150000C9489030C94ED020C948F030C94CE0341
:100160000C94970300002100240027002A002D0092
:100170003000330001010000040107010A01000002
:100180002200250028002B002E003100340002013F
:100190000000050108010B010000200023002600DB
:1001A00029002C002F00320000010000030106018D
:1001B00009010505050507050808080802020202ED
:1001C0000A0A0808040404040101010101010101F3
:1001D0000303030303030303040707070C0C0C0CBE
:1001E0000C0C0C0C020202020606060606060606A7
:1001F0000B0B0B0B0B0B0B0B010210202008081034
:100200002040102040800201020108040201010286
:10021000040810204080804020100804020180045F
:1002200002018040201008040201080402010102BA
:1002300004081020408001020408102040800000C3
:100240000A0B02090C0D0E08070304010000000050
:10025000000000000000000000000000000000009E
:10026000000000000000000000001211100000005B
:10027000000000000000000000000000000000007E
:1002800000000000CE07C90C11241FBECFEFD1E241
:10029000DEBFCDBF00E00CBF23E0A6E8B2E001C0A6
:1002A0001D92A53CB207E1F712E0A0E0B2E0E0ED5C
:1002B000F2E200E00BBF02C007900D92A638B10732
:1002C000D9F711E0C3E4D1E000E006C021970109AD
:1002D000802FFE010E942F0FC234D10780E0080753
:1002E000A9F70E94B0080C9456110C94000096E0F7
:1002F000899FD0011124A25DBC4F90967C936E9390
:100300005F9791E091969C939197E0919B03F09178
:100310009C0390919A03992339F0309751F0811101
:1003200008C080914A031994309719F05C968C911B
:10033000FACF0895CF92DF92EF92FF920F931F931F
:1003400096E0899FF0011124E25DFC4F11A2278DF8
:1003500030A12130310551F178F02230310509F416
:1003600051C02330310509F452C01F910F91FF9005
:10037000EF90DF90CF9008956623B9F361E070E0CD
:100380000E9477012FB7F89480918D0290918E0290
:10039000A0918F02B09190022FBF8093860390931B
:1003A0008703A0938803B0938903DFCF9FB7F894A6
:1003B000C0908D02D0908E02E0908F02F09090025B
:1003C0009FBF00918603109187032091880330918D
:1003D0008903C01AD10AE20AF30A00919803109126
:1003E000990330E020E00C151D052E053F0550F463
:1003F00062E070E01F910F91FF90EF90DF90CF903F
:100400000C9477016111B1CF63E070E0F3CF70E03D
:1004100060E0F0CFAF92BF92CF92DF92EF92FF9267
:100420000F931F93CF93DF936C017B018B01040F1C
:10043000151FEB015E01AE18BF08C017D10759F0B8
:100440006991D601ED91FC910190F081E02DC601FA
:100450001995892B79F7C501DF91CF911F910F91E4
:10046000FF90EF90DF90CF90BF90AF900895FC0188
:10047000538D448D252F30E0842F90E0821B930B09
:10048000541710F0CF96089501970895FC01918DAF
:10049000828D981761F0A28DAE0FBF2FB11D5D96B2
:1004A0008C91928D9F5F9F73928F90E008958FEF54
:1004B0009FEF0895FC01918D828D981731F0828D08
:1004C000E80FF11D858D90E008958FEF9FEF08955F
:1004D000FC01918D228D892F90E0805C9F4F821BC3
:1004E00091098F739927089581E992E00E9468022B
:1004F00021E0892B09F420E0822F0895FC01A48DCE
:10050000A80FB92FB11DA35ABF4F2C91848D90E035
:1005100001968F739927848FA689B7892C93A08918
:10052000B1898C91837080648C93938D848D9813A2
:1005300006C00288F389E02D80818F7D8083089535
:10054000EF92FF920F931F93CF93DF93EC0181E023
:10055000888F9B8D8C8D98131AC0E889F9898081CA
:1005600085FF15C09FB7F894EE89FF896083E889FD
:10057000F98980818370806480839FBF81E090E0EF
:10058000DF91CF911F910F91FF90EF900895F62E7C
:100590000B8D10E00F5F1F4F0F731127E02E8C8D16
:1005A0008E110CC00FB607FCFACFE889F98980815B
:1005B00085FFF5CFCE010E947E02F1CFEB8DEC0FCF
:1005C000FD2FF11DE35AFF4FF0829FB7F8940B8F78
:1005D000EA89FB8980818062CFCFCF93DF93EC01E2
:1005E000888D8823B9F0AA89BB89E889F9898C911B
:1005F00085FD03C0808186FD0DC00FB607FCF7CFD7
:100600008C9185FFF2CF808185FFEDCFCE010E94D6
:100610007E02E9CFDF91CF91089580E090E0892BB1
:1006200029F00E94740281110E94000080E090E095
:10063000892B49F080E090E0892B29F00E9400008E
:1006400081110E94000080E090E0892B49F080E059
:1006500090E0892B29F00E94000081110E94000087
:1006600080E090E0892B49F080E090E0892B29F030
:100670000E94000081110C94000008958150823185
:1006800008F05AC0E82FF0E08827E65BFC4F8F4F58
:100690000C942F0F6A036E035C03620366039C03D2
:1006A000710377037B038103850389038F0393031E
:1006B0009C0397039D03A103809180008F77809313
:1006C00080000895809180008F7DF9CF8091800017
:1006D000877FF5CF84B58F7784BD089584B58F7DEE
:1006E000FBCF8091B0008F778093B0000895809108
:1006F000B0008F7DF9CF809190008F77809390002C
:100700000895809190008F7DF9CF80919000877F30
:10071000F5CF8091A0008F778093A00008958091FD
:10072000A0008F7DF9CF8091A000877FF5CF8091C9
:1007300020018F77809320010895809120018F7D83
:10074000F9CF80912001877FF5CFCF93DF93282FBA
:1007500030E0F901E25CFD4F8491F901E850FE4F71
:10076000D491F901EE54FE4FC491CC23A1F0811134
:100770000E943E03EC2FF0E0EE0FFF1FE856FE4F05
:10078000A591B491EC91ED2381E090E009F480E033
:10079000DF91CF91089580E090E0FACF862F0C94FE
:1007A000A5031F93CF93DF93282F30E0F901E25C7C
:1007B000FD4F8491F901E850FE4FD491F901EE54B8
:1007C000FE4FC491CC23A9F0162F81110E943E0345
:1007D000EC2FF0E0EE0FFF1FE258FE4FA591B49111
:1007E0008FB7F894EC91111108C0D095DE23DC93FB
:1007F0008FBFDF91CF911F910895DE2BF8CF862F09
:10080000642F0C94D103CF93DF9390E0FC01E85068
:10081000FE4F24918E549E4FFC0184918823C9F091
:1008200090E0880F991FFC01EC59FE4FA591B491FF
:10083000FC01E258FE4FC591D49161110DC09FB7E4
:10084000F8948C91209582238C9388812823288387
:100850009FBFDF91CF910895623051F49FB7F89414
:100860003C91822F809583238C93E8812E2BEFCFB0
:100870008FB7F894EC912E2B2C938FBFEACF862F55
:10088000642F0C9403043FB7F894809187029091F1
:100890008802A0918902B0918A0226B5A89B05C062
:1008A0002F3F19F00196A11DB11D3FBFBA2FA92FEF
:1008B000982F8827BC01CD01620F711D811D911DEC
:1008C00042E0660F771F881F991F4A95D1F7089558
:1008D0008F929F92AF92BF92CF92DF92EF92FF9250
:1008E0004B015C010E9443046B017C010E944304A4
:1008F0006C197D098E099F09683E73408105910539
:10090000A8F321E0821A9108A108B10888EEC80E68
:1009100083E0D81EE11CF11C81149104A104B104F0
:1009200029F7FF90EF90DF90CF90BF90AF909F900E
:100930008F900895089590E080E00895CF93DF931D
:10094000EC0160E08E810E94D10361E08E810E9403
:10095000D10360E08E810E94D1038BE891E0019782
:10096000F1F7DF91CF910895CF92DF92EF92FF924E
:100970000F931F93CF93DF936C017C0187E0E80E08
:10098000F11CD0E0C0E0062F10E0B8010C2E02C030
:10099000759567950A94E2F76170F70181917F017F
:1009A0000E94D1032196C430D10579F7C601DF91A9
:1009B000CF911F910F91FF90EF90DF90CF900C940B
:1009C0009E04CF92DF92EF92FF920F931F93CF93EB
:1009D000DF93EC01F62E642F8C810E94D1038D8170
:1009E0008F3F19F060E00E94D1030F2D10E08F853A
:1009F00084FF25C06E0187E0C80ED11CF12CE12CCC
:100A0000B8010E2C02C0759567950A94E2F76170E3
:100A1000F60181916F010E94D103FFEFEF1AFF0AE7
:100A200088E0E816F10461F7CE01DF91CF911F91C4
:100A30000F91FF90EF90DF90CF900C949E04B8013F
:100A400084E0759567958A95E1F7CE010E94B4041C
:100A50006F2DCE01DF91CF911F910F91FF90EF90FD
:100A6000DF90CF900C94B40440E0682F89EA93E0C3
:100A70000C94E10481E00E9434058BE39FE101972F
:100A8000F1F70895CF93DF93823029F49091B80362
:100A900098609093B8038093BC031092BD0380E4E8
:100AA0008093BE0380E18093BF0380E58093C00301
:100AB00061E08091AD030E9403048091AE038F3FFB
:100AC00019F061E00E94030461E08091AF030E948D
:100AD0000304C9EAD3E09E01295A33408091B80348
:100AE00084FD0BC084E090E021962817390744F478
:100AF00061E08E810E940304EECF88E090E0F4CFA5
:100B00008BE39DE00197F1F760E08091AD030E94D7
:100B1000D10360E08091AF030E94D1038091AE03C6
:100B20008F3F19F060E00E94D1038091B80384FDEB
:100B300034C063E089EA93E00E94B404CBE4D6E4D5
:100B4000CE010197F1F763E089EA93E00E94B404D3
:100B50002197F1F763E089EA93E00E94B40483E50A
:100B600092E00197F1F762E089EA93E00E94B40411
:100B70008091B80380620E94340584E08093B903B9
:100B80008CE00E9434050E943A0582E08093BA030B
:100B900086E0DF91CF910C94340580620E94340589
:100BA0008BE496E40197F1F78091B80380620E948C
:100BB000340583E592E00197F1F78091B8038062F4
:100BC0000E943405D5CF41E00E94E10481E090E02D
:100BD0000895FC0101900020E9F73197AF01481B0F
:100BE000590BBC0189EA93E00C940A028F929F9200
:100BF000AF92BF920F931F93CF93DF93CDB7DEB722
:100C0000A1970FB6F894DEBF0FBECDBF19A2423038
:100C100008F44AE08E010F5D1F4F842E912CB12CF9
:100C2000A12CA50194010E940D0FE62FB901CA0164
:100C3000EA30F4F4E05DD801EE938D01232B242BF0
:100C4000252B79F790E080E0109719F0CD010E94F4
:100C5000E905A1960FB6F894DEBF0FBECDBFDF91B8
:100C6000CF911F910F91BF90AF909F908F9008955B
:100C7000E95CE1CFCF93DF930E94E905EC0182E4C8
:100C800092E00E94E9058C0F9D1FDF91CF9108959E
:100C9000DC01ED91FC9111976091A3037091A40385
:100CA0003097D9F061157105A9F414968D919C9136
:100CB000892BB1F0808190E008958091A7039091F5
:100CC000A803892B69F0FB01808190E091958195C3
:100CD00091090895CF010C9446116115710569F7CA
:100CE00090E080E00895CF93DF93EC0188819981B3
:100CF000009711F00E94D30F198218821D821C8266
:100D00001B821A82DF91CF910895FC01808191812D
:100D1000009711F00C94D30F08950F931F93CF9366
:100D2000DF93EC0188819981009759F02A813B81FA
:100D30002617370730F081E0DF91CF911F910F9197
:100D400008958B016F5F7F4F0E945C10009759F0F0
:100D5000998388831B830A832C813D81232B59F738
:100D6000FC011082E8CF80E0E7CFEF92FF920F9373
:100D70001F93CF93DF93EC017B018A01BA010E949C
:100D80008D0681110BC0CE010E947306CE01DF914A
:100D9000CF911F910F91FF90EF9008951D830C83C9
:100DA000B701888199810E944F11F0CFFB0101901A
:100DB0000020E9F73197AF01461B570B0C94B5069D
:100DC000EF92FF920F931F93CF93DF93EC017B0180
:100DD000198218821B821A821D821C8250E040E018
:100DE00064E472E00E94B5068091A1039091A20391
:100DF0000097F9F087018E159F0508F48C01E091AA
:100E00009D03F0919E03E00FF11FF080108260912E
:100E10009D0370919E03CE016115710591F00E94B2
:100E2000D60680919D0390919E03080F191FF8012B
:100E3000F082CE01DF91CF911F910F91FF90EF9043
:100E400008950E947306EDCF1F920F920FB60F9276
:100E500011240BB60F922F933F934F935F936F9391
:100E60007F938F939F93AF93BF93EF93FF9381E90A
:100E700092E00E947E02FF91EF91BF91AF919F910E
:100E80008F917F916F915F914F913F912F910F9033
:100E90000BBE0F900FBE0F901F9018951F920F92D0
:100EA0000FB60F9211240BB60F922F938F939F932F
:100EB000EF93FF93E091A102F091A2028081E09173
:100EC000A702F091A80282FD1DC090818091AA0224
:100ED0008F5F8F732091AB02821741F0E091AA02DD
:100EE000F0E0EF56FD4F958F8093AA02FF91EF91AE
:100EF0009F918F912F910F900BBE0F900FBE0F906F
:100F00001F9018958081F2CF1F920F920FB60F920B
:100F100011242F933F938F939F93AF93BF9380910F
:100F20008D0290918E02A0918F02B091900230912B
:100F3000860223E0230F2D3758F50196A11DB11D20
:100F40002093860280938D0290938E02A0938F024D
:100F5000B09390028091870290918802A0918902BB
:100F6000B0918A020196A11DB11D809387029093D2
:100F70008802A0938902B0938A02BF91AF919F919A
:100F80008F913F912F910F900FBE0F901F9018954A
:100F900026E8230F0296A11DB11DD2CF1092940214
:100FA0001092930288EE93E0A0E0B0E08093950267
:100FB00090939602A0939702B09398028EE192E0EC
:100FC000909392028093910285EC90E090939E0220
:100FD00080939D0284EC90E09093A00280939F0206
:100FE00080EC90E09093A2028093A10281EC90E0CB
:100FF0009093A4028093A30282EC90E09093A602C7
:101000008093A50286EC90E09093A8028093A702BB
:101010001092AA021092AB021092AC021092AD0292
:101020001092AC031092AB038AE392E09093AA0370
:101030008093A90382E08093AD038FEF8093AE038A
:1010400083E08093AF0384E08093B00385E08093D6
:10105000B10386E08093B20386E18093B3031092DC
:10106000B4031092B5031092B6031092B703109216
:10107000B80381E00E9442051092A4031092A303DA
:101080001092A6031092A5031092A8031092A70332
:1010900044E050E065E472E083EA93E00E94B50624
:1010A00010929E0310929D031092A00310929F0332
:1010B0001092A2031092A10350E040E064E472E0B9
:1010C0008DE993E00E94B50610923003109234032C
:1010D000109233031092350380E392E090932F0334
:1010E00080932E03EAE4F3E01082148213821582C7
:1010F000369683E0E638F807B9F784E092E09093FB
:1011000091038093900381E092E090939303809306
:10111000920384E08093940383E08093950388E0B6
:1011200092E090938F0380938E038AE090E09093F7
:1011300097038093960384EF91E0909399038093B3
:10114000980310929C0310929B0310928A031092B2
:101150008B0310928C0310928D0310929A030895C2
:10116000CF93DF9300D000D01F921F92CDB7DEB790
:10117000789484B5826084BD84B5816084BD85B572
:10118000826085BD85B5816085BD80916E0081607E
:1011900080936E0010928100809181008260809324
:1011A0008100809181008160809381008091800026
:1011B0008160809380008091B10084608093B10051
:1011C0008091B00081608093B00080919100826036
:1011D0008093910080919100816080939100809133
:1011E00090008160809390008091A1008260809344
:1011F000A1008091A10081608093A1008091A00056
:1012000081608093A0008091210182608093210100
:101210008091210181608093210180912001816072
:101220008093200180917A00846080937A0080917D
:101230007A00826080937A0080917A008160809346
:101240007A0080917A00806880937A001092C100C1
:1012500082E00E944205E091A102F091A20292E098
:101260009083E0919D02F0919E021082E0919F0296
:10127000F091A0028FEC80831092A902E091A50268
:10128000F091A60286E08083E091A302F091A4028F
:10129000808180618083E091A302F091A40280812B
:1012A00088608083E091A302F091A402808180682D
:1012B0008083E091A302F091A40280818F7D8083DE
:1012C0009093000260E086E30E94030461E082E103
:1012D0000E94030460E088E30E94030461E085E16A
:1012E0000E94030461E083E10E94030461E084E161
:1012F0000E94030422242A94322C21E020939A0392
:101300008FB7F89440918D0250918E0260918F02B8
:10131000709190028FBF80918A0390918B03A0916E
:101320008C03B0918D03481B590B6A0B7B0B80918A
:10133000960390919703B0E0A0E084179507A60765
:10134000B70708F0C7C110E080919403181760F444
:10135000E0919003F0919103E10FF11D62E0808133
:101360000E9403041F5FF0CF912C80919503981683
:1013700008F063C0E92CF12CE0919203F091930303
:10138000EE0DFF1D61E080810E940304E091920355
:10139000F0919303EE0DFF1D60E080810E94D10368
:1013A00081E090E0A0E0B0E0092C04C0880F991F14
:1013B000AA1FBB1F0A94D2F75C016C01C094D094A1
:1013C000812C80919403881608F5082D10E0E09197
:1013D0009003F0919103E00FF11F80810E94A5031B
:1013E0000C5F1F4F000F111FF801E25DFC4F892BAE
:1013F00041F4808191818A299B2991838083839400
:10140000E0CF808191818C219D21F7CFE0919203E3
:10141000F0919303EE0DFF1D61E080810E94D103E6
:101420008091920390919303E80EF91E60E0F7011A
:1014300080810E940304939498CF0EE213E0780118
:10144000F701878D90A1892B21F4148E368E258E7D
:1014500011A2F6E0EF0EF11C2AE6E21623E0F206F6
:1014600079F7B12C80919403B81608F053C0A12CE1
:10147000CB2CD12CCC0CDD1CC6018A5C9C4F6C01A2
:1014800020919503A21608F043C0F6016081718196
:101490000A2C02C0769567950A94E2F7B29E9001F5
:1014A00011242A0D311DEEE2F3E080E0458D568DCA
:1014B0002417350709F46BC28F5F36968A30B1F76F
:1014C00060FF24C0EEE2F3E090E080E0448D411143
:1014D00018C0E0918E03F0918F03E20FF31F40815B
:1014E00056E0589FF001599FF00D1124E25DFC4F2A
:1014F000448F368F258F10A2178E61E00E949A01CB
:1015000005C0019636968A30910501F7A394B8CFAD
:10151000B394A8CF80E0F80191A19111892F0A5FBF
:101520001F4FE016F106B9F79FB7F89440918D026E
:1015300050918E0260918F02709190029FBF4093F4
:101540008A0350938B0360938C0370938D038823DD
:1015500009F4C0C080914F03882309F4BBC0809177
:101560004D0390914E03019709F0B4C0F0904A03E7
:10157000F110B3C086E30E94A50361E0019709F072
:1015800060E082E10E94D10388E30E94A50361E04C
:10159000019709F060E085E10E94D10380917B0012
:1015A000886080937B008091000220E4829FC001CC
:1015B0001124876080937C0080917A0080648093FE
:1015C0007A0080917A0086FDFCCF8091780060914E
:1015D0007900762F682F072E000C880B990B0E943C
:1015E000D80C20E030E849E854E40E94370D20E0B0
:1015F00030E040E256E40E94620E6B017C01E1E0C3
:101600008091BC038111E0E0E195F0E0E755FC4FEB
:10161000848980680E9434058AE492E00E94E9058A
:10162000A7019601C701B6010E94080F882309F49B
:1016300016C185E592E00E94E90581E692E00E94EC
:101640003A0620E030E040EF51E4C701B6010E94C5
:10165000030F87FD19C0E091BC03E23008F093C18D
:10166000E150F0E0E755FC4F848980680E94340522
:1016700083E692E00E943A0664E170E080E090E048
:101680000E9468040E943A0520E030E040EA51E4FC
:10169000C701B6010E94D10C1816CCF0E091BC0332
:1016A000E23008F072C1E150F0E0E755FC4F848968
:1016B00080680E94340586E792E00E943A0664E161
:1016C00070E080E090E00E9468040E943A050E9469
:1016D0000D0313CE10929A034DCF1A8219821C82E9
:1016E0001B821E821D8260919D0370919E03611575
:1016F000710541F04091A1035091A203CE010196E2
:101700000E94B506FF8218860D811E810F5F1F4F54
:10171000B801CE0101960E948D06811157C0CE01FD
:1017200001960E94730669817A816115710509F439
:101730005BC04D815E818DE993E00E94B506CE01CC
:1017400001960E94850600918B0210918C02C801BF
:10175000019690938C0280938B02F3E2FF120ACFE2
:10176000B801CE0101960E94E0062D813E81809154
:10177000A7039091A8032817390741F4CE010196D9
:101780000E944806FF24F394892B09F0F12CCE0126
:1017900001960E948506FF2061F161E084E10E94CC
:1017A000D1036CE271E080E090E00E94680460E0A8
:1017B00084E10E94D10364E472E08DE993E00E9429
:1017C000D60610928C0210928B02D4CE29813A81D7
:1017D0008D819E81BE01695F7F4F820F931F0E94A2
:1017E0004F111E830D839FCF8DE993E00E947306F6
:1017F000A6CFB801CE0101960E94E0062D813E8160
:101800008091A7039091A8032817390749F4CE01C6
:1018100001960E944806FF24F394892B09F0F12CCD
:10182000CE0101960E948506F110A4CE61E083E10D
:101830000E94D1036CE271E080E090E00E946804B5
:1018400060E083E10E94D10310928C0210928B021F
:1018500064E472E08DE993E00E94D6068BCE4601E7
:101860005701E894B7F82FEF3FEF4FE75FE7C50167
:10187000B4010E94080F81110DC02FEF3FEF4FE719
:101880005FE7C501B4010E94D10C18161CF489E56C
:1018900092E0D1CE2FEF3FEF4FE75FE4C701B601F3
:1018A0000E94030F18161CF48DE592E0C4CE2FEFB2
:1018B0003FEF4FE75FECC701B6010E94D10C87FDF7
:1018C000F3CF20E030E0A901C701B6010E94D10C9E
:1018D00087FF56C041E06DE289EA93E00E94E1048F
:1018E000C701B60190582AE037ED43EA5BE30E9456
:1018F000F60D2B013C010E94D40E4B015C010E94AD
:10190000D60C9B01AC01C301B2010E94F50D2B0165
:101910003C014AE0C501B4010E94F60541E06EE2D7
:1019200089EA93E00E94E10420E030E040E251E4E3
:10193000C301B2010E94370D2B013C010E94D40E5D
:101940004B01B12CA12C4AE0C501B4010E94F6055F
:10195000C501B4010E94D60C9B01AC01C301B201C8
:101960000E94F50D20E030E040E251E40E94370D86
:101970000E94D40E90E080E04AE00E94F6055DCE21
:10198000C701B601B0CFE1E06CCEE1E08DCE617071
:10199000B5CD8DE993E00E94850683EA93E00C942F
:1019A00085060E94130D08F481E00895E89409C0AB
:1019B00097FB3EF490958095709561957F4F8F4F82
:1019C0009F4F9923A9F0F92F96E9BB279395F69598
:1019D000879577956795B795F111F8CFFAF4BB0F16
:1019E00011F460FF1BC06F5F7F4F8F4F9F4F16C07A
:1019F000882311F096E911C0772321F09EE8872F04
:101A0000762F05C0662371F096E8862F70E060E0BF
:101A10002AF09A95660F771F881FDAF7880F969538
:101A2000879597F90895990F0008550FAA0BE0E8DC
:101A3000FEEF16161706E807F907C0F01216130690
:101A4000E407F50798F0621B730B840B950B39F4D0
:101A50000A2661F0232B242B252B21F408950A2636
:101A600009F4A140A6958FEF811D811D08950E9464
:101A70004A0D0C94BB0D0E94AD0D38F00E94B40DC0
:101A800020F0952311F00C94A40D0C94AA0D1124B0
:101A90000C94EF0D0E94CC0D70F3959FC1F3950F40
:101AA00050E0551F629FF001729FBB27F00DB11DE2
:101AB000639FAA27F00DB11DAA1F649F6627B00D72
:101AC000A11D661F829F2227B00DA11D621F739F5B
:101AD000B00DA11D621F839FA00D611D221F749F69
:101AE0003327A00D611D231F849F600D211D822FB0
:101AF000762F6A2F11249F5750409AF0F1F08823D7
:101B00004AF0EE0FFF1FBB1F661F771F881F915003
:101B10005040A9F79E3F510580F00C94A40D0C9401
:101B2000EF0D5F3FE4F3983ED4F386957795679584
:101B3000B795F795E7959F5FC1F7FE2B880F911D2D
:101B40009695879597F9089597F99F6780E870E0D3
:101B500060E008959FEF80EC089500240A94161623
:101B6000170618060906089500240A94121613068B
:101B7000140605060895092E0394000C11F4882319
:101B800052F0BB0F40F4BF2B11F460FF04C06F5F35
:101B90007F4F8F4F9F4F089557FD9058440F551F0B
:101BA00059F05F3F71F04795880F97FB991F61F0DF
:101BB0009F3F79F087950895121613061406551F56
:101BC000F2CF4695F1DF08C0161617061806991FC2
:101BD000F1CF86957105610508940895E894BB27B7
:101BE00066277727CB0197F908955058BB27AA2776
:101BF0000E940D0E0C94BB0D0E94AD0D38F00E949A
:101C0000B40D20F039F49F3F19F426F40C94AA0D7A
:101C10000EF4E095E7FB0C94A40DE92F0E94CC0D87
:101C200058F3BA17620773078407950720F079F411
:101C3000A6F50C94EE0D0EF4E0950B2EBA2FA02D08
:101C40000B01B90190010C01CA01A0011124FF2769
:101C5000591B99F0593F50F4503E68F11A16F04064
:101C6000A22F232F342F4427585FF3CF4695379563
:101C70002795A795F0405395C9F77EF41F16BA0B28
:101C8000620B730B840BBAF09150A1F0FF0FBB1FD6
:101C9000661F771F881FC2F70EC0BA0F621F731F1F
:101CA000841F48F4879577956795B795F7959E3F7C
:101CB00008F0B0CF9395880F08F09927EE0F97950D
:101CC000879508950E94760E0C94BB0D0E94B40D6A
:101CD00058F00E94AD0D40F029F45F3F29F00C94BC
:101CE000A40D51110C94EF0D0C94AA0D0E94CC0D73
:101CF00068F39923B1F3552391F3951B550BBB273B
:101D0000AA2762177307840738F09F5F5F4F220F7F
:101D1000331F441FAA1FA9F335D00E2E3AF0E0E876
:101D200032D091505040E695001CCAF72BD0FE2FC0
:101D300029D0660F771F881FBB1F26173707480754
:101D4000AB07B0E809F0BB0B802DBF01FF2793580C
:101D50005F4F3AF09E3F510578F00C94A40D0C941F
:101D6000EF0D5F3FE4F3983ED4F386957795679542
:101D7000B795F7959F5FC9F7880F911D9695879541
:101D800097F90895E1E0660F771F881FBB1F621760
:101D900073078407BA0720F0621B730B840BBA0B1E
:101DA000EE1F88F7E09508950E94D40D88F09F57A4
:101DB00098F0B92F9927B751B0F0E1F0660F771F6F
:101DC000881F991F1AF0BA95C9F714C0B13091F065
:101DD0000E94EE0DB1E008950C94EE0D672F782F60
:101DE0008827B85F39F0B93FCCF38695779567952A
:101DF000B395D9F73EF490958095709561957F4F96
:101E00008F4F9F4F08950E94130D08F48FEF089590
:101E10000E94130D880B990B0895A1E21A2EAA1B9C
:101E2000BB1BFD010DC0AA1FBB1FEE1FFF1FA2178A
:101E3000B307E407F50720F0A21BB30BE40BF50B87
:101E4000661F771F881F991F1A9469F76095709510
:101E5000809590959B01AC01BD01CF010895EE0FD7
:101E6000FF1F881F8BBF0790F691E02D19940F93E9
:101E70001F93CF93DF938230910510F482E090E0BE
:101E8000E091C303F091C40330E020E0B0E0A0E0B3
:101E9000309799F42115310509F44AC0281B390BF4
:101EA00024303105D8F58A819B816115710589F14E
:101EB000FB0193838283FE0111C040815181028125
:101EC000138148175907E0F04817590799F41097FC
:101ED00061F012960C93129713961C933296CF01D1
:101EE000DF91CF911F910F9108950093C303109339
:101EF000C403F4CF2115310551F04217530738F0D0
:101F0000A901DB019A01BD01DF01F801C1CFEF0199
:101F1000F9CF9093C4038093C303CDCFFE01E20FAA
:101F2000F31F819391932250310939832883D7CFAE
:101F30002091C1033091C203232B41F4209116025A
:101F4000309117023093C2032093C10320911402F1
:101F5000309115022115310541F42DB73EB740915E
:101F6000180250911902241B350BE091C103F09126
:101F7000C203E217F307A0F42E1B3F0B2817390703
:101F800078F0AC014E5F5F4F2417350748F04E0FD5
:101F90005F1F5093C2034093C103819391939FCFDE
:101FA000F0E0E0E09CCFCF93DF930097E9F0FC01F5
:101FB000329713821282A091C303B091C403ED0142
:101FC00030E020E01097A1F420813181820F931F2F
:101FD0002091C1033091C2032817390709F061C06D
:101FE000F093C203E093C103DF91CF910895EA011A
:101FF000CE17DF07E8F54A815B819E014115510547
:10200000B1F7E901FB83EA8349915991C40FD51FC8
:10201000EC17FD0761F4808191810296840F951F72
:10202000E90199838883828193819B838A83F0E08D
:10203000E0E012968D919C9113970097B9F52D9140
:102040003C911197CD010296820F931F2091C103FD
:102050003091C2032817390739F6309751F510929D
:10206000C4031092C303B093C203A093C103BCCFB7
:10207000D383C28340815181840F951FC817D9072C
:1020800061F44E5F5F4F88819981480F591F5183DA
:1020900040838A819B81938382832115310509F0D6
:1020A000B0CFF093C403E093C3039ECFFD01DC01E6
:1020B000C0CF13821282D7CF4F925F926F927F92DE
:1020C0008F929F92AF92BF92CF92DF92EF92FF9248
:1020D0000F931F93CF93DF938C01009799F4CB015B
:1020E000DF91CF911F910F91FF90EF90DF90CF90F4
:1020F000BF90AF909F908F907F906F905F904F9028
:102100000C94370FFC01E60FF71F9C012250310998
:10211000E217F30708F4AEC0D901CD91DC91119715
:10212000C617D70720F1C530D10578F0CE01049746
:102130008617970750F0C61BD70B2297C193D193F0
:102140006D937C93CF010E94D30FC801DF91CF9193
:102150001F910F91FF90EF90DF90CF90BF90AF90C5
:102160009F908F907F906F905F904F9008955B014C
:10217000AC1ABD0A4C018C0E9D1EA091C303B091F8
:10218000C403512C412CF12CE12C109731F5809196
:10219000C1039091C2038815990509F05CC04616E9
:1021A000570608F058C080911402909115020097CC
:1021B00041F48DB79EB74091180250911902841BCB
:1021C000950BE817F90708F055C0F093C203E093A8
:1021D000C103F90171836083B8CF8D919C911197F0
:1021E00012966C90129713967C901397A815B905C8
:1021F00059F56C0142E0C40ED11CCA14DB0420F175
:10220000AC014A195B09DA011296159780F06282D7
:10221000738251834083D9016D937C93E114F1045F
:1022200071F0D7011396FC93EE9312978ECF2296FE
:102230008C0F9D1FF90191838083F301EFCFF09301
:10224000C403E093C30381CF4816590608F42C0158
:102250007D01D3019ACFCB010E94370F7C010097FB
:1022600049F0AE01B8010E943D11C8010E94D30F90
:1022700087016BCF10E000E068CFFB01DC0102C0FA
:1022800001900D9241505040D8F70895FB01DC01B8
:102290008D91019080190110D9F3990B0895FB01DC
:1022A000DC0101900D920020E1F7089511E0C3E4F4
:1022B000D1E000E006C0802FFE010E942F0F219682
:1022C000011DC434D10780E00807A9F7F894FFCFB7
:1022D000010D0C0B0A090807333231363534393811
:1022E0003723302A0000C503800000000000A00250
:1022F0000A023702ED02680246025A02000000009C
:102300003F04FF03CE0300000000E3050A029B0424
:102310009A040D0A003139303300534943414B4C84
:10232000494B3A20006E616E00696E66006F7666FA
:10233000004300534943414B4C494B59554B53457E
:102340004C4449212000534943414B4C494B44558F
:062350005354552100006A
:00000001FF
